{
  "contractName": "Material",
  "abi": [
    {
      "constant": true,
      "inputs": [],
      "name": "age",
      "outputs": [
        {
          "internalType": "uint256",
          "name": "",
          "type": "uint256"
        }
      ],
      "payable": false,
      "stateMutability": "view",
      "type": "function"
    },
    {
      "constant": true,
      "inputs": [],
      "name": "material",
      "outputs": [
        {
          "internalType": "string",
          "name": "",
          "type": "string"
        }
      ],
      "payable": false,
      "stateMutability": "view",
      "type": "function"
    }
  ],
  "bytecode": "0x608060405234801561001057600080fd5b506101b5806100206000396000f3fe608060405234801561001057600080fd5b50600436106100365760003560e01c8063262a9dff1461003b578063b95a4f8314610059575b600080fd5b6100436100dc565b6040518082815260200191505060405180910390f35b6100616100e2565b6040518080602001828103825283818151815260200191508051906020019080838360005b838110156100a1578082015181840152602081019050610086565b50505050905090810190601f1680156100ce5780820380516001836020036101000a031916815260200191505b509250505060405180910390f35b60015481565b60008054600181600116156101000203166002900480601f0160208091040260200160405190810160405280929190818152602001828054600181600116156101000203166002900480156101785780601f1061014d57610100808354040283529160200191610178565b820191906000526020600020905b81548152906001019060200180831161015b57829003601f168201915b50505050508156fea265627a7a723158207be9ab807c6b7ae117ad0b7caf54410ec19bcfc02afff1739a26aa94f154bcae64736f6c63430005100032",
  "source": "pragma solidity >=0.4.22 <0.9.0;\r\n\r\n//like a javascript class\r\ncontract Material {\r\n    string public material;\r\n    uint public age;\r\n    \r\n    // Constructor   \r\n    //    function Material() public {\r\n        \r\n    //    }\r\n\r\n\r\n\r\n\r\n   // Types of variables\r\n   // #STRINGS -\r\n   // #INT/UINT -\r\n   // #ADDRESS -\r\n   // #BYTES1 Through 32 - \r\n   // #BYTES -\r\n   // #MAPPING -\r\n   // #STRUCT -\r\n    \r\n\r\n    // Visibility in Solidity -For variables and Functions\r\n    // Public -Variables or functions that can be called by other smart contracts\r\n    // Private -Variables and functions are only available for the current contract\r\n    // Internal -Variables and functions can only be accesssed by only one contract \r\n    // External -Variables and functions that can be called from other contracts in transactions and can only be called internally with specific this.functionName() method\r\n\r\n\r\n    //More on variables\r\n    //State Variables\r\n    //Local Variables\r\n    //Global variables\r\n}",
  "sourcePath": "C:/Users/Ahsan/coding/Rocket_Elevators_Blockchain/contracts/Material-provider.sol",
  "compiler": {
    "name": "solc",
    "version": "0.5.16+commit.9c3226ce.Emscripten.clang"
  },
  "schemaVersion": "3.3.4",
  "updatedAt": "2021-04-15T04:09:21.738Z",
  "networkType": "ethereum",
  "devdoc": {
    "methods": {}
  },
  "userdoc": {
    "methods": {}
  }
}