{
  "contractName": "ProjectOffice",
  "abi": [
    {
      "constant": true,
      "inputs": [
        {
          "internalType": "uint256",
          "name": "",
          "type": "uint256"
        }
      ],
      "name": "projects",
      "outputs": [
        {
          "internalType": "address",
          "name": "",
          "type": "address"
        }
      ],
      "payable": false,
      "stateMutability": "view",
      "type": "function"
    },
    {
      "constant": false,
      "inputs": [
        {
          "internalType": "uint256",
          "name": "projectId",
          "type": "uint256"
        }
      ],
      "name": "project",
      "outputs": [
        {
          "internalType": "uint256",
          "name": "",
          "type": "uint256"
        }
      ],
      "payable": false,
      "stateMutability": "nonpayable",
      "type": "function"
    },
    {
      "constant": true,
      "inputs": [],
      "name": "getProjects",
      "outputs": [
        {
          "internalType": "address[4]",
          "name": "",
          "type": "address[4]"
        }
      ],
      "payable": false,
      "stateMutability": "view",
      "type": "function"
    }
  ],
  "bytecode": "0x608060405234801561001057600080fd5b5061029e806100206000396000f3fe608060405234801561001057600080fd5b50600436106100415760003560e01c8063107046bd1461004657806311d5aaa7146100b4578063dcc60128146100f6575b600080fd5b6100726004803603602081101561005c57600080fd5b810190808035906020019092919050505061013c565b604051808273ffffffffffffffffffffffffffffffffffffffff1673ffffffffffffffffffffffffffffffffffffffff16815260200191505060405180910390f35b6100e0600480360360208110156100ca57600080fd5b810190808035906020019092919050505061016f565b6040518082815260200191505060405180910390f35b6100fe6101c6565b6040518082600460200280838360005b8381101561012957808201518184015260208101905061010e565b5050505090500191505060405180910390f35b6000816004811061014957fe5b016000915054906101000a900473ffffffffffffffffffffffffffffffffffffffff1681565b6000336000836004811061017f57fe5b0160006101000a81548173ffffffffffffffffffffffffffffffffffffffff021916908373ffffffffffffffffffffffffffffffffffffffff160217905550819050919050565b6101ce610247565b600060048060200260405190810160405280929190826004801561023d576020028201915b8160009054906101000a900473ffffffffffffffffffffffffffffffffffffffff1673ffffffffffffffffffffffffffffffffffffffff16815260200190600101908083116101f3575b5050505050905090565b604051806080016040528060049060208202803883398082019150509050509056fea265627a7a72315820b942e590f7ea19d3473f867e7bb9d9970a202e92e7b28a184086a334dcdd965864736f6c63430005100032",
  "source": "// SPDX-License-Identifier: MIT\npragma solidity >=0.4.22 <0.9.0;\n\ncontract ProjectOffice {\n  address[4] public projects;\n\n  function project(uint projectId) public returns (uint) {\n    // require(projectId >= 0 && projectId <= 15);\n\n    projects[projectId] = msg.sender;\n\n    return projectId;\n  }\n  \n  // Retrieving the adopters\n  function getProjects() public view returns (address[4] memory) {\n    return projects;\n  }\n}\n",
  "sourcePath": "/home/scharles/week12/Rocket_Elevators_Blockchain/contracts/ProjectOffice.sol",
  "compiler": {
    "name": "solc",
    "version": "0.5.16+commit.9c3226ce.Emscripten.clang"
  },
  "schemaVersion": "3.3.4",
  "updatedAt": "2021-04-14T02:17:48.892Z",
  "networkType": "ethereum",
  "devdoc": {
    "methods": {}
  },
  "userdoc": {
    "methods": {}
  }
}