{
  "contractName": "ProjectOffice",
  "abi": [
    {
      "constant": true,
      "inputs": [
        {
          "internalType": "uint256",
          "name": "",
          "type": "uint256"
        }
      ],
      "name": "projects",
      "outputs": [
        {
          "internalType": "address",
          "name": "",
          "type": "address"
        }
      ],
      "payable": false,
      "stateMutability": "view",
      "type": "function"
    },
    {
      "constant": false,
      "inputs": [
        {
          "internalType": "uint256",
          "name": "projectId",
          "type": "uint256"
        }
      ],
      "name": "assign",
      "outputs": [
        {
          "internalType": "uint256",
          "name": "",
          "type": "uint256"
        }
      ],
      "payable": false,
      "stateMutability": "nonpayable",
      "type": "function"
    },
    {
      "constant": false,
      "inputs": [
        {
          "internalType": "uint256",
          "name": "Batteries",
          "type": "uint256"
        },
        {
          "internalType": "uint256",
          "name": "Columns",
          "type": "uint256"
        },
        {
          "internalType": "uint256",
          "name": "Elevators",
          "type": "uint256"
        },
        {
          "internalType": "uint256",
          "name": "Floors",
          "type": "uint256"
        }
      ],
      "name": "neededParts",
      "outputs": [],
      "payable": false,
      "stateMutability": "nonpayable",
      "type": "function"
    },
    {
      "constant": true,
      "inputs": [],
      "name": "getAddresses",
      "outputs": [
        {
          "internalType": "address[10]",
          "name": "",
          "type": "address[10]"
        }
      ],
      "payable": false,
      "stateMutability": "view",
      "type": "function"
    },
    {
      "constant": true,
      "inputs": [],
      "name": "getProjects",
      "outputs": [
        {
          "components": [
            {
              "internalType": "uint256",
              "name": "Controllers",
              "type": "uint256"
            },
            {
              "internalType": "uint256",
              "name": "Shafts",
              "type": "uint256"
            },
            {
              "internalType": "uint256",
              "name": "Doors",
              "type": "uint256"
            },
            {
              "internalType": "uint256",
              "name": "Buttons",
              "type": "uint256"
            },
            {
              "internalType": "uint256",
              "name": "Displays",
              "type": "uint256"
            },
            {
              "internalType": "uint256",
              "name": "Pulleys",
              "type": "uint256"
            }
          ],
          "internalType": "struct ProjectOffice.Parts[]",
          "name": "",
          "type": "tuple[]"
        }
      ],
      "payable": false,
      "stateMutability": "view",
      "type": "function"
    }
  ],
  "bytecode": "0x608060405234801561001057600080fd5b50610798806100206000396000f3fe608060405234801561001057600080fd5b50600436106100575760003560e01c8063107046bd1461005c5780634157a6d51461008c5780634c081138146100a8578063a39fac12146100d8578063dcc60128146100f6575b600080fd5b61007660048036036100719190810190610400565b610114565b6040516100839190610628565b60405180910390f35b6100a660048036036100a19190810190610429565b610147565b005b6100c260048036036100bd9190810190610400565b610205565b6040516100cf9190610681565b60405180910390f35b6100e0610276565b6040516100ed9190610643565b60405180910390f35b6100fe6102f7565b60405161010b919061065f565b60405180910390f35b600181600a811061012157fe5b016000915054906101000a900473ffffffffffffffffffffffffffffffffffffffff1681565b61014f610392565b8481600001818152505082816020018181525050838284020281604001818152505081830281606001818152505082816080018181525050828160a001818152505060008190806001815401808255809150509060018203906000526020600020906006020160009091929091909150600082015181600001556020820151816001015560408201518160020155606082015181600301556080820151816004015560a082015181600501555050505050505050565b6000808210158015610218575060098211155b61022157600080fd5b33600183600a811061022f57fe5b0160006101000a81548173ffffffffffffffffffffffffffffffffffffffff021916908373ffffffffffffffffffffffffffffffffffffffff160217905550819050919050565b61027e6103c8565b6001600a806020026040519081016040528092919082600a80156102ed576020028201915b8160009054906101000a900473ffffffffffffffffffffffffffffffffffffffff1673ffffffffffffffffffffffffffffffffffffffff16815260200190600101908083116102a3575b5050505050905090565b60606000805480602002602001604051908101604052809291908181526020016000905b8282101561038957838290600052602060002090600602016040518060c001604052908160008201548152602001600182015481526020016002820154815260200160038201548152602001600482015481526020016005820154815250508152602001906001019061031b565b50505050905090565b6040518060c001604052806000815260200160008152602001600081526020016000815260200160008152602001600081525090565b604051806101400160405280600a90602082028038833980820191505090505090565b6000813590506103fa8161073e565b92915050565b60006020828403121561041257600080fd5b6000610420848285016103eb565b91505092915050565b6000806000806080858703121561043f57600080fd5b600061044d878288016103eb565b945050602061045e878288016103eb565b935050604061046f878288016103eb565b9250506060610480878288016103eb565b91505092959194509250565b600061049883836104bc565b60208301905092915050565b60006104b0838361058f565b60c08301905092915050565b6104c581610702565b82525050565b6104d481610702565b82525050565b6104e3816106b6565b6104ed81846106e6565b92506104f88261069c565b8060005b83811015610529578151610510878261048c565b965061051b836106cc565b9250506001810190506104fc565b505050505050565b600061053c826106c1565b61054681856106f1565b9350610551836106a6565b8060005b8381101561058257815161056988826104a4565b9750610574836106d9565b925050600181019050610555565b5085935050505092915050565b60c0820160008201516105a5600085018261060a565b5060208201516105b8602085018261060a565b5060408201516105cb604085018261060a565b5060608201516105de606085018261060a565b5060808201516105f1608085018261060a565b5060a082015161060460a085018261060a565b50505050565b61061381610734565b82525050565b61062281610734565b82525050565b600060208201905061063d60008301846104cb565b92915050565b60006101408201905061065960008301846104da565b92915050565b600060208201905081810360008301526106798184610531565b905092915050565b60006020820190506106966000830184610619565b92915050565b6000819050919050565b6000819050602082019050919050565b6000600a9050919050565b600081519050919050565b6000602082019050919050565b6000602082019050919050565b600081905092915050565b600082825260208201905092915050565b600061070d82610714565b9050919050565b600073ffffffffffffffffffffffffffffffffffffffff82169050919050565b6000819050919050565b61074781610734565b811461075257600080fd5b5056fea365627a7a72315820e4b5962ba7e592bad17cb5966db39b8c1be5a76b9e02aca547a1d0d9e5df68e26c6578706572696d656e74616cf564736f6c63430005100040",
  "source": "// SPDX-License-Identifier: MIT\npragma solidity >=0.4.22 <0.9.0;\npragma experimental ABIEncoderV2;\n\ncontract ProjectOffice {\n  Parts[] parts;\n  // address public projects;\n  // address public owner;\n  address[10] public projects;\n\n  // event for EVM logging\n  // event OwnerSet(address indexed oldOwner, address indexed newOwner);\n  function assign(uint projectId) public returns (uint) {\n      require(projectId >= 0 && projectId <= 9);\n\n      projects[projectId] = msg.sender;\n\n      return projectId;\n  }\n\n  struct Parts {\n    uint256 Controllers;\n    uint256 Shafts;\n    uint256 Doors;\n    uint256 Buttons;\n    uint256 Displays;\n    uint256 Pulleys;\n  }\n\n  // event DataStored(uint256 Controllers);\n\n  // modifier isOwner() {\n  //       // If the first argument of 'require' evaluates to 'false', execution terminates and all\n  //       // changes to the state and to Ether balances are reverted.\n  //       // This used to consume all gas in old EVM versions, but not anymore.\n  //       // It is often a good idea to use 'require' to check if functions are called correctly.\n  //       // As a second argument, you can also provide an explanation about what went wrong.\n  //       require(msg.sender == owner, \"Caller is not owner\");\n  //       _;\n  // }\n\n  // constructor() {\n  //     owner = msg.sender; // 'msg.sender' is sender of current call, contract deployer for a constructor\n  //     emit OwnerSet(address(0), owner);\n  // }\n\n  // function changeOwner(address newOwner) public isOwner {\n  //       emit OwnerSet(owner, newOwner);\n  //       owner = newOwner;\n  // }\n\n  function neededParts(uint256 Batteries, uint256 Columns, uint256 Elevators, uint256 Floors) public {\n      Parts memory p;\n      p.Controllers = Batteries;\n      p.Shafts = Elevators;\n      p.Doors = Elevators * Floors * Columns;\n      p.Buttons = Elevators * Floors;\n      p.Displays = Elevators;\n      p.Pulleys = Elevators;\n\n      parts.push(p);\n  }\n\n  function getAddresses() public view returns (address[10] memory) {\n    return projects;\n  }\n\n  function getProjects() public view returns (Parts[] memory) {\n    return parts;\n  }\n\n  // function project(uint projectId) public returns (uint) {\n  //   // require(projectId >= 0 && projectId <= 15);\n\n  //   projects[projectId] = msg.sender;\n\n  //   return projectId;\n  // }\n  \n  // Retrieving the adopters\n}\n",
  "sourcePath": "/home/scharles/week12/Rocket_Elevators_Blockchain/contracts/ProjectOffice.sol",
  "compiler": {
    "name": "solc",
    "version": "0.5.16+commit.9c3226ce.Emscripten.clang"
  },
  "schemaVersion": "3.3.4",
  "updatedAt": "2021-04-14T21:14:49.053Z",
  "networkType": "ethereum",
  "devdoc": {
    "methods": {}
  },
  "userdoc": {
    "methods": {}
  }
}