{
  "contractName": "ProjectOffice",
  "abi": [
    {
      "anonymous": false,
      "inputs": [
        {
          "indexed": true,
          "internalType": "address",
          "name": "oldOwner",
          "type": "address"
        },
        {
          "indexed": true,
          "internalType": "address",
          "name": "newOwner",
          "type": "address"
        }
      ],
      "name": "OwnerSet",
      "type": "event"
    },
    {
      "constant": false,
      "inputs": [
        {
          "internalType": "uint256",
          "name": "Batteries",
          "type": "uint256"
        },
        {
          "internalType": "uint256",
          "name": "Columns",
          "type": "uint256"
        },
        {
          "internalType": "uint256",
          "name": "Elevators",
          "type": "uint256"
        },
        {
          "internalType": "uint256",
          "name": "Floors",
          "type": "uint256"
        }
      ],
      "name": "neededParts",
      "outputs": [],
      "payable": false,
      "stateMutability": "nonpayable",
      "type": "function"
    },
    {
      "constant": true,
      "inputs": [],
      "name": "getProjects",
      "outputs": [
        {
          "components": [
            {
              "internalType": "uint256",
              "name": "Controllers",
              "type": "uint256"
            },
            {
              "internalType": "uint256",
              "name": "Shafts",
              "type": "uint256"
            },
            {
              "internalType": "uint256",
              "name": "Doors",
              "type": "uint256"
            },
            {
              "internalType": "uint256",
              "name": "Buttons",
              "type": "uint256"
            },
            {
              "internalType": "uint256",
              "name": "Displays",
              "type": "uint256"
            },
            {
              "internalType": "uint256",
              "name": "Pulleys",
              "type": "uint256"
            }
          ],
          "internalType": "struct ProjectOffice.Parts[]",
          "name": "",
          "type": "tuple[]"
        }
      ],
      "payable": false,
      "stateMutability": "view",
      "type": "function"
    }
  ],
  "bytecode": "0x608060405234801561001057600080fd5b5061043b806100206000396000f3fe608060405234801561001057600080fd5b50600436106100365760003560e01c80634157a6d51461003b578063dcc6012814610057575b600080fd5b61005560048036036100509190810190610219565b610075565b005b61005f610133565b60405161006c919061037c565b60405180910390f35b61007d6101ce565b8481600001818152505082816020018181525050838284020281604001818152505081830281606001818152505082816080018181525050828160a001818152505060008190806001815401808255809150509060018203906000526020600020906006020160009091929091909150600082015181600001556020820151816001015560408201518160020155606082015181600301556080820151816004015560a082015181600501555050505050505050565b60606000805480602002602001604051908101604052809291908181526020016000905b828210156101c557838290600052602060002090600602016040518060c0016040529081600082015481526020016001820154815260200160028201548152602001600382015481526020016004820154815260200160058201548152505081526020019060010190610157565b50505050905090565b6040518060c001604052806000815260200160008152602001600081526020016000815260200160008152602001600081525090565b600081359050610213816103e1565b92915050565b6000806000806080858703121561022f57600080fd5b600061023d87828801610204565b945050602061024e87828801610204565b935050604061025f87828801610204565b925050606061027087828801610204565b91505092959194509250565b600061028883836102f2565b60c08301905092915050565b600061029f826103ae565b6102a981856103c6565b93506102b48361039e565b8060005b838110156102e55781516102cc888261027c565b97506102d7836103b9565b9250506001810190506102b8565b5085935050505092915050565b60c082016000820151610308600085018261036d565b50602082015161031b602085018261036d565b50604082015161032e604085018261036d565b506060820151610341606085018261036d565b506080820151610354608085018261036d565b5060a082015161036760a085018261036d565b50505050565b610376816103d7565b82525050565b600060208201905081810360008301526103968184610294565b905092915050565b6000819050602082019050919050565b600081519050919050565b6000602082019050919050565b600082825260208201905092915050565b6000819050919050565b6103ea816103d7565b81146103f557600080fd5b5056fea365627a7a7231582020ffe125104424b9f730c939d1b7693352283a01ddb2842ea5edc34ba7ca3ed06c6578706572696d656e74616cf564736f6c63430005100040",
  "source": "// SPDX-License-Identifier: MIT\npragma solidity >=0.4.22 <0.9.0;\npragma experimental ABIEncoderV2;\n\ncontract ProjectOffice {\n  Parts[] parts;\n  // address public owner;\n  // mapping(address => Projects) public projects;\n\n  // event for EVM logging\n  event OwnerSet(address indexed oldOwner, address indexed newOwner);\n\n  // function assign(uint projectId) public returns (uint) {\n  //     require(projectId >= 0 && projectId <= 9);\n\n  //     projects[projectId] = msg.sender;\n\n  //     return projectId;\n  // }\n\n  struct Parts {\n    uint256 Controllers;\n    uint256 Shafts;\n    uint256 Doors;\n    uint256 Buttons;\n    uint256 Displays;\n    uint256 Pulleys;\n  }\n\n  // event DataStored(uint256 Controllers);\n\n  //  modifier isOwner() {\n  //        // If the first argument of 'require' evaluates to 'false', execution terminates and all\n  //        // changes to the state and to Ether balances are reverted.\n  //        // This used to consume all gas in old EVM versions, but not anymore.\n  //        // It is often a good idea to use 'require' to check if functions are called correctly.\n  //        // As a second argument, you can also provide an explanation about what went wrong.\n  //        require(msg.sender == owner, \"Caller is not owner\");\n  //        _;\n  //  }\n\n  //  constructor() {\n  //      owner = msg.sender; // 'msg.sender' is sender of current call, contract deployer for a constructor\n  //      emit OwnerSet(address(0), owner);\n  //  }\n\n  // function changeOwner(address newOwner) public isOwner {\n  //       emit OwnerSet(owner, newOwner);\n  //       owner = newOwner;\n  // }\n\n  function neededParts(uint256 Batteries, uint256 Columns, uint256 Elevators, uint256 Floors) public {\n      Parts memory p;\n      p.Controllers = Batteries;\n      p.Shafts = Elevators;\n      p.Doors = Elevators * Floors * Columns;\n      p.Buttons = Elevators * Floors;\n      p.Displays = Elevators;\n      p.Pulleys = Elevators;\n\n      parts.push(p);\n  }\n\n  // function getAddresses() public view returns (address[10] memory) {\n  //   return projects;\n  // }\n\n  function getProjects() public view returns (Parts[] memory) {\n    return parts;\n  }\n\n  // function project(uint projectId) public returns (uint) {\n  //   // require(projectId >= 0 && projectId <= 15);\n\n  //   projects[projectId] = msg.sender;\n\n  //   return projectId;\n  // }\n  \n  // Retrieving the adopters\n}\n",
  "sourcePath": "/home/scharles/week12/Rocket_Elevators_Blockchain/contracts/ProjectOffice.sol",
  "compiler": {
    "name": "solc",
    "version": "0.5.16+commit.9c3226ce.Emscripten.clang"
  },
  "schemaVersion": "3.3.4",
  "updatedAt": "2021-04-15T14:29:41.734Z",
  "networkType": "ethereum",
  "devdoc": {
    "methods": {}
  },
  "userdoc": {
    "methods": {}
  }
}